{
  "contractName": "Helloworld",
  "abi": [
    {
      "inputs": [
        {
          "internalType": "string",
          "name": "_message",
          "type": "string"
        }
      ],
      "stateMutability": "nonpayable",
      "type": "constructor"
    },
    {
      "inputs": [],
      "name": "message",
      "outputs": [
        {
          "internalType": "string",
          "name": "",
          "type": "string"
        }
      ],
      "stateMutability": "view",
      "type": "function"
    },
    {
      "inputs": [],
      "name": "owner",
      "outputs": [
        {
          "internalType": "address",
          "name": "",
          "type": "address"
        }
      ],
      "stateMutability": "view",
      "type": "function"
    },
    {
      "inputs": [],
      "name": "hello",
      "outputs": [
        {
          "internalType": "string",
          "name": "",
          "type": "string"
        }
      ],
      "stateMutability": "view",
      "type": "function"
    },
    {
      "inputs": [
        {
          "internalType": "string",
          "name": "_message",
          "type": "string"
        }
      ],
      "name": "setMessage",
      "outputs": [],
      "stateMutability": "payable",
      "type": "function"
    }
  ],
  "bytecode": "0x60806040523480156200001157600080fd5b5060405162000e0938038062000e09833981810160405281019062000037919062000224565b8060009081620000489190620004c0565b5033600160006101000a81548173ffffffffffffffffffffffffffffffffffffffff021916908373ffffffffffffffffffffffffffffffffffffffff16021790555050620005a7565b6000604051905090565b600080fd5b600080fd5b600080fd5b600080fd5b6000601f19601f8301169050919050565b7f4e487b7100000000000000000000000000000000000000000000000000000000600052604160045260246000fd5b620000fa82620000af565b810181811067ffffffffffffffff821117156200011c576200011b620000c0565b5b80604052505050565b60006200013162000091565b90506200013f8282620000ef565b919050565b600067ffffffffffffffff821115620001625762000161620000c0565b5b6200016d82620000af565b9050602081019050919050565b60005b838110156200019a5780820151818401526020810190506200017d565b60008484015250505050565b6000620001bd620001b78462000144565b62000125565b905082815260208101848484011115620001dc57620001db620000aa565b5b620001e98482856200017a565b509392505050565b600082601f830112620002095762000208620000a5565b5b81516200021b848260208601620001a6565b91505092915050565b6000602082840312156200023d576200023c6200009b565b5b600082015167ffffffffffffffff8111156200025e576200025d620000a0565b5b6200026c84828501620001f1565b91505092915050565b600081519050919050565b7f4e487b7100000000000000000000000000000000000000000000000000000000600052602260045260246000fd5b60006002820490506001821680620002c857607f821691505b602082108103620002de57620002dd62000280565b5b50919050565b60008190508160005260206000209050919050565b60006020601f8301049050919050565b600082821b905092915050565b600060088302620003487fffffffffffffffffffffffffffffffffffffffffffffffffffffffffffffffff8262000309565b62000354868362000309565b95508019841693508086168417925050509392505050565b6000819050919050565b6000819050919050565b6000620003a16200039b62000395846200036c565b62000376565b6200036c565b9050919050565b6000819050919050565b620003bd8362000380565b620003d5620003cc82620003a8565b84845462000316565b825550505050565b600090565b620003ec620003dd565b620003f9818484620003b2565b505050565b5b81811015620004215762000415600082620003e2565b600181019050620003ff565b5050565b601f82111562000470576200043a81620002e4565b6200044584620002f9565b8101602085101562000455578190505b6200046d6200046485620002f9565b830182620003fe565b50505b505050565b600082821c905092915050565b6000620004956000198460080262000475565b1980831691505092915050565b6000620004b0838362000482565b9150826002028217905092915050565b620004cb8262000275565b67ffffffffffffffff811115620004e757620004e6620000c0565b5b620004f38254620002af565b6200050082828562000425565b600060209050601f83116001811462000538576000841562000523578287015190505b6200052f8582620004a2565b8655506200059f565b601f1984166200054886620002e4565b60005b8281101562000572578489015182556001820191506020850194506020810190506200054b565b868310156200059257848901516200058e601f89168262000482565b8355505b6001600288020188555050505b505050505050565b61085280620005b76000396000f3fe60806040526004361061003f5760003560e01c806319ff1d2114610044578063368b87721461006f5780638da5cb5b1461008b578063e21f37ce146100b6575b600080fd5b34801561005057600080fd5b506100596100e1565b6040516100669190610324565b60405180910390f35b6100896004803603810190610084919061048f565b610173565b005b34801561009757600080fd5b506100a06101e0565b6040516100ad9190610519565b60405180910390f35b3480156100c257600080fd5b506100cb610206565b6040516100d89190610324565b60405180910390f35b6060600080546100f090610563565b80601f016020809104026020016040519081016040528092919081815260200182805461011c90610563565b80156101695780601f1061013e57610100808354040283529160200191610169565b820191906000526020600020905b81548152906001019060200180831161014c57829003601f168201915b5050505050905090565b600160009054906101000a900473ffffffffffffffffffffffffffffffffffffffff1673ffffffffffffffffffffffffffffffffffffffff163373ffffffffffffffffffffffffffffffffffffffff16146101cd57600080fd5b80600090816101dc919061074a565b5050565b600160009054906101000a900473ffffffffffffffffffffffffffffffffffffffff1681565b6000805461021390610563565b80601f016020809104026020016040519081016040528092919081815260200182805461023f90610563565b801561028c5780601f106102615761010080835404028352916020019161028c565b820191906000526020600020905b81548152906001019060200180831161026f57829003601f168201915b505050505081565b600081519050919050565b600082825260208201905092915050565b60005b838110156102ce5780820151818401526020810190506102b3565b60008484015250505050565b6000601f19601f8301169050919050565b60006102f682610294565b610300818561029f565b93506103108185602086016102b0565b610319816102da565b840191505092915050565b6000602082019050818103600083015261033e81846102eb565b905092915050565b6000604051905090565b600080fd5b600080fd5b600080fd5b600080fd5b7f4e487b7100000000000000000000000000000000000000000000000000000000600052604160045260246000fd5b61039c826102da565b810181811067ffffffffffffffff821117156103bb576103ba610364565b5b80604052505050565b60006103ce610346565b90506103da8282610393565b919050565b600067ffffffffffffffff8211156103fa576103f9610364565b5b610403826102da565b9050602081019050919050565b82818337600083830152505050565b600061043261042d846103df565b6103c4565b90508281526020810184848401111561044e5761044d61035f565b5b610459848285610410565b509392505050565b600082601f8301126104765761047561035a565b5b813561048684826020860161041f565b91505092915050565b6000602082840312156104a5576104a4610350565b5b600082013567ffffffffffffffff8111156104c3576104c2610355565b5b6104cf84828501610461565b91505092915050565b600073ffffffffffffffffffffffffffffffffffffffff82169050919050565b6000610503826104d8565b9050919050565b610513816104f8565b82525050565b600060208201905061052e600083018461050a565b92915050565b7f4e487b7100000000000000000000000000000000000000000000000000000000600052602260045260246000fd5b6000600282049050600182168061057b57607f821691505b60208210810361058e5761058d610534565b5b50919050565b60008190508160005260206000209050919050565b60006020601f8301049050919050565b600082821b905092915050565b6000600883026105f67fffffffffffffffffffffffffffffffffffffffffffffffffffffffffffffffff826105b9565b61060086836105b9565b95508019841693508086168417925050509392505050565b6000819050919050565b6000819050919050565b600061064761064261063d84610618565b610622565b610618565b9050919050565b6000819050919050565b6106618361062c565b61067561066d8261064e565b8484546105c6565b825550505050565b600090565b61068a61067d565b610695818484610658565b505050565b5b818110156106b9576106ae600082610682565b60018101905061069b565b5050565b601f8211156106fe576106cf81610594565b6106d8846105a9565b810160208510156106e7578190505b6106fb6106f3856105a9565b83018261069a565b50505b505050565b600082821c905092915050565b600061072160001984600802610703565b1980831691505092915050565b600061073a8383610710565b9150826002028217905092915050565b61075382610294565b67ffffffffffffffff81111561076c5761076b610364565b5b6107768254610563565b6107818282856106bd565b600060209050601f8311600181146107b457600084156107a2578287015190505b6107ac858261072e565b865550610814565b601f1984166107c286610594565b60005b828110156107ea578489015182556001820191506020850194506020810190506107c5565b868310156108075784890151610803601f891682610710565b8355505b6001600288020188555050505b50505050505056fea264697066735822122061cd0b8f7792f3d4dded2151170121d194ece03ff9c7ecf9a2cfa385dc21f08164736f6c63430008110033",
  "immutableReferences": {},
  "source": "pragma solidity 0.8.17;\n\ncontract Helloworld {\n\nstring public message;\naddress public owner;\n\nconstructor(string memory _message){\nmessage = _message;\nowner = msg.sender;\n}\n\nfunction hello() public view returns(string memory) {\n    return message;\n\n    }\n\nfunction setMessage(string memory _message) public payable {\n    require(msg.sender == owner);\n    message = _message;\n}\n}",
  "sourcePath": "/Users/nikitakatari/Downloads/SmartContract4-main/contracts/Helloworld.sol",
  "compiler": {
    "name": "solc",
    "version": "0.8.17+commit.8df45f5f.Emscripten.clang"
  },
  "schemaVersion": "3.4.10",
  "updatedAt": "2022-10-23T23:44:44.768Z",
  "devdoc": {
    "kind": "dev",
    "methods": {},
    "version": 1
  },
  "userdoc": {
    "kind": "user",
    "methods": {},
    "version": 1
  }
}